:020000040800F2
:1000000000000220D1250008E9220008EB220008A8
:10001000ED220008EF220008F12200080000000095
:100020000000000000000000000000001172000845
:10003000F322000800000000B172000815730008E8
:100040002126000821260008212600082126000874
:100050002126000821260008212600082126000864
:100060002126000821260008212600082126000854
:10007000F522000821260008212600082126000874
:100080002126000821260008212600082126000834
:100090000523000821260008212600082126000843
:1000A0002126000821260008212600082126000814
:1000B0002126000821260008212600082126000804
:1000C00021260008212600082126000821260008F4
:1000D00021260008212600082126000815230008F3
:1000E00021260008212600082126000821260008D4
:1000F00021260008252300082126000821260008C3
:1001000021260008212600082126000821260008B3
:1001100021260008212600082126000821260008A3
:100120002126000835230008212600082126000882
:100130002126000821260008212600082126000883
:100140002126000845230008212600085523000821
:100150002126000821260008212600086523000822
:100160002126000821260008212600082126000853
:100170002126000821260008212600080000000092
:080180002126000821260008D9
:1001900010B5054C237833B9044B13B10448AFF3C1
:1001A00000800123237010BD200700200000000004
:1001B000B8B9000808B5034B1BB103490348AFF3B6
:1001C000008008BD0000000024070020B8B9000826
:1001D00081F0004102E000BF83F0004330B54FEAF8
:1001E00041044FEA430594EA050F08BF90EA020F65
:1001F0001FBF54EA000C55EA020C7FEA645C7FEAF8
:10020000655C00F0E2804FEA5454D4EB5555B8BF1A
:100210006D420CDD2C4480EA020281EA030382EA8B
:10022000000083EA010180EA020281EA0303362D1D
:1002300088BF30BD11F0004F4FEA01314FF4801CF0
:100240004CEA113102D0404261EB410113F0004F02
:100250004FEA03334CEA133302D0524263EB4303B9
:1002600094EA050F00F0A780A4F10104D5F1200E57
:100270000DDB02FA0EFC22FA05F2801841F10001B2
:1002800003FA0EF2801843FA05F359410EE0A5F186
:1002900020050EF1200E012A03FA0EFC28BF4CF0B7
:1002A000020C43FA05F3C01851EBE37101F000456D
:1002B00007D54FF0000EDCF1000C7EEB00006EEB7A
:1002C0000101B1F5801F1BD3B1F5001F0CD3490804
:1002D0005FEA30004FEA3C0C04F101044FEA44525B
:1002E00012F5800F80F09A80BCF1004F08BF5FEAE2
:1002F000500C50F1000041EB045141EA050130BDC2
:100300005FEA4C0C404141EB0101013C28BFB1F5D3
:10031000801FE9D291F0000F04BF01460020B1FA1E
:1003200081F308BF2033A3F10B03B3F120020CDAF1
:100330000C3208DD02F1140CC2F10C0201FA0CF0CF
:1003400021FA02F10CE002F11402D8BFC2F1200C34
:1003500001FA02F120FA0CFCDCBF41EA0C019040EA
:10036000E41AA2BF01EB0451294330BD6FEA040433
:100370001F3C1CDA0C340EDC04F11404C4F120021E
:1003800020FA04F001FA02F340EA030021FA04F330
:1003900045EA030130BDC4F10C04C4F1200220FA87
:1003A00002F001FA04F340EA0300294630BD21FAC5
:1003B00004F0294630BD94F0000F83F4801306BF8B
:1003C00081F480110134013D4EE77FEA645C18BF7F
:1003D0007FEA655C29D094EA050F08BF90EA020F16
:1003E00005D054EA000C04BF1946104630BD91EA0E
:1003F000030F1EBF0021002030BD5FEA545C05D111
:100400004000494128BF41F0004130BD14F580044F
:100410003CBF01F5801130BD01F0004545F0FE41C3
:1004200041F470014FF0000030BD7FEA645C1ABFF8
:10043000194610467FEA655C1CBF0B46024650EA2F
:10044000013406BF52EA033591EA030F41F400215B
:1004500030BD00BF90F0000F04BF0021704730B5E1
:100460004FF4806404F132044FF000054FF00001B6
:1004700050E700BF90F0000F04BF0021704730B577
:100480004FF4806404F1320410F0004548BF40424C
:100490004FF000013EE700BF42004FEAE2014FEAA1
:1004A00031014FEA02701FBF12F07F4393F07F4F7C
:1004B00081F06051704732F07F4208BF704793F07F
:1004C0007F4F04BF41F40021704730B54FF4607492
:1004D00001F0004521F000411CE700BF50EA010295
:1004E00008BF704730B54FF000050AE050EA01023E
:1004F00008BF704730B511F0004502D5404261EBAE
:1005000041014FF4806404F132045FEA915C3FF4EE
:10051000D8AE4FF003025FEADC0C18BF03325FEA8B
:10052000DC0C18BF033202EBDC02C2F1200300FA3C
:1005300003FC20FA02F001FA03FE40EA0E0021FA61
:1005400002F11444BDE600BF70B54FF0FF0C4CF44F
:10055000E06C1CEA11541DBF1CEA135594EA0C0F01
:1005600095EA0C0F00F0DEF82C4481EA030621EA3C
:100570004C5123EA4C5350EA013518BF52EA033577
:1005800041F4801143F4801338D0A0FB02CE4FF029
:100590000005E1FB02E506F00042E0FB03E54FF059
:1005A0000006E1FB03569CF0000F18BF4EF0010E51
:1005B000A4F1FF04B6F5007F64F5407404D25FEA4D
:1005C0004E0E6D4146EB060642EAC62141EA555100
:1005D0004FEAC52040EA5E504FEACE2EB4F1FD0C42
:1005E00088BFBCF5E06F1ED8BEF1004F08BF5FEAC0
:1005F000500E50F1000041EB045170BD06F0004672
:1006000046EA010140EA020081EA0301B4EB5C041E
:10061000C2BFD4EB0C0541EA045170BD41F4801116
:100620004FF0000E013C00F3AB8014F1360FDEBF3B
:10063000002001F0004170BDC4F10004203C35DA17
:100640000C341BDC04F11404C4F1200500FA05F39A
:1006500020FA04F001FA05F240EA020001F000423B
:1006600021F0004110EBD37021FA04F642EB0601B1
:100670005EEA430E08BF20EAD37070BDC4F10C04DB
:10068000C4F1200500FA04F320FA05F001FA04F29F
:1006900040EA020001F0004110EBD37041F100018B
:1006A0005EEA430E08BF20EAD37070BDC4F1200596
:1006B00000FA05F24EEA020E20FA04F301FA05F2FE
:1006C00043EA020321FA04F001F0004121FA04F2A6
:1006D00020EA020000EBD3705EEA430E08BF20EA76
:1006E000D37070BD94F0000F0FD101F000464000B0
:1006F00041EB010111F4801F08BF013CF7D041EA32
:10070000060195F0000F18BF704703F00046520035
:1007100043EB030313F4801F08BF013DF7D043EA06
:100720000603704794EA0C0F0CEA135518BF95EABC
:100730000C0F0CD050EA410618BF52EA4306D1D143
:1007400081EA030101F000414FF0000070BD50EA62
:10075000410606BF1046194652EA430619D094EAEC
:100760000C0F02D150EA013613D195EA0C0F05D1D6
:1007700052EA03361CBF104619460AD181EA03012A
:1007800001F0004141F0FE4141F470014FF00000E2
:1007900070BD41F0FE4141F4780170BD70B54FF07D
:1007A000FF0C4CF4E06C1CEA11541DBF1CEA1355FD
:1007B00094EA0C0F95EA0C0F00F0A7F8A4EB0504DF
:1007C00081EA030E52EA03354FEA013100F08880D6
:1007D0004FEA03334FF0805545EA131343EA12639F
:1007E0004FEA022245EA111545EA10654FEA002654
:1007F0000EF000419D4208BF964244F1FD0404F50D
:10080000407402D25B084FEA3202B61A65EB030568
:100810005B084FEA32024FF480104FF4002CB6EB25
:10082000020E75EB030E22BFB61A754640EA0C00A5
:100830005B084FEA3202B6EB020E75EB030E22BFE5
:10084000B61A754640EA5C005B084FEA3202B6EB26
:10085000020E75EB030E22BFB61A754640EA9C00E5
:100860005B084FEA3202B6EB020E75EB030E22BFB5
:10087000B61A754640EADC0055EA060E18D04FEA73
:10088000051545EA16754FEA06164FEAC30343EA13
:1008900052734FEAC2025FEA1C1CC0D111F4801FE0
:1008A0000BD141EA00014FF000004FF0004CB6E7D9
:1008B00011F4801F04BF01430020B4F1FD0C88BF78
:1008C000BCF5E06F3FF6AFAEB5EB030C04BFB6EB83
:1008D000020C5FEA500C50F1000041EB045170BD76
:1008E0000EF0004E4EEA113114EB5C04C2BFD4EBA3
:1008F0000C0541EA045170BD41F480114FF0000E27
:10090000013C90E645EA060E8DE60CEA135594EAA2
:100910000C0F08BF95EA0C0F3FF43BAF94EA0C0FA5
:100920000AD150EA01347FF434AF95EA0C0F7FF41A
:1009300025AF104619462CE795EA0C0F06D152EA6E
:1009400003353FF4FDAE1046194622E750EA410652
:1009500018BF52EA43067FF4C5AE50EA41047FF463
:100960000DAF52EA43057FF4EBAE12E74FF0FF3CC8
:1009700006E000BF4FF0010C02E000BF4FF0010C99
:100980004DF804CD4FEA410C7FEA6C5C4FEA430C12
:1009900018BF7FEA6C5C1BD001B050EA410C0CBF61
:1009A00052EA430C91EA030F02BF90EA020F0020C3
:1009B000704710F1000F91EA030F58BF994208BF2A
:1009C00090422CBFD8176FEAE37040F001007047E7
:1009D0004FEA410C7FEA6C5C02D150EA013C07D13E
:1009E0004FEA430C7FEA6C5CD6D152EA033CD3D089
:1009F0005DF8040B704700BF8446104662468C4683
:100A00001946634600E000BF01B5FFF7B7FF0028B5
:100A100048BF10F1000F01BD4DF808EDFFF7F4FFDE
:100A20000CBF012000205DF808FB00BF4DF808ED69
:100A3000FFF7EAFF34BF012000205DF808FB00BF8C
:100A40004DF808EDFFF7E0FF94BF012000205DF8AE
:100A500008FB00BF4DF808EDFFF7CEFF94BF012063
:100A600000205DF808FB00BF4DF808EDFFF7C4FF5C
:100A700034BF012000205DF808FB00BF4FEA4102AF
:100A800012F5001215D211D56FF47873B3EB6252E0
:100A900012D94FEAC12343F0004343EA505311F007
:100AA000004F23FA02F018BF404270474FF0000099
:100AB000704750EA013005D111F0004008BF6FF0D7
:100AC000004070474FF00000704700BF4FEA4102FE
:100AD000B2F1E04324BFB3F5001CDCF1FE5C0DD99C
:100AE00001F0004C4FEAC0024CEA5070B2F1004FE6
:100AF00040EB830008BF20F00100704711F0804FE9
:100B000021D113F13872BCBF01F00040704741F4AD
:100B100080114FEA5252C2F11802C2F1200C10FAB1
:100B20000CF320FA02F018BF40F001004FEAC12395
:100B30004FEAD32303FA0CFC40EA0C0023FA02F339
:100B40004FEA4303CCE77FEA625307D150EA01330F
:100B50001EBF4FF0FE4040F44000704701F00040DF
:100B600040F0FE4040F40000704700BF53B94AB95E
:100B7000002908BF00281CBF4FF0FF314FF0FF30A5
:100B800001F0F6B8ADF1080C6DE904CE00F006F8FE
:100B9000DDF804E0DDE9022304B070472DE9F047F9
:100BA000089D0C46002B4ED194468C458646B2FAE1
:100BB00082F262D94AB1C2F12003914020FA03F3D4
:100BC0000CFA02FC194300FA02FE4FEA1C471FFA16
:100BD0008CF6B1FBF7F44FEA1E4307FB141143EA0E
:100BE000014304FB06F199420AD91CEB030304F10B
:100BF000FF3080F01281994240F20F81023C634441
:100C0000591A1FFA8EF3B1FBF7F007FB101143EAF4
:100C1000014300FB06F69E420AD91CEB030300F1D8
:100C2000FF3180F0FC809E4240F2F980634402383C
:100C30009B1B40EA044000211DB1D3400022C5E9BE
:100C40000032BDE8F0878B4205D90DB1C5E900013E
:100C500000210846F5E7B3FA83F1002946D1A34203
:100C600002D39042C0F0F080861A64EB03030120A7
:100C7000002DE6D0C5E90063E3E7002A40F090804C
:100C8000A1EB0C044FEA1C481FFA8CF70121B4FBBE
:100C9000F8F64FEA1E4308FB164443EA044307FBF9
:100CA00006F0984208D91CEB030306F1FF3402D288
:100CB000984200F2CD8026461C1A1FFA8EF3B4FB30
:100CC000F8F008FB104443EA044300FB07F79F4297
:100CD00008D91CEB030300F1FF3402D29F4200F25B
:100CE000B0802046DB1B40EA0640A5E7C1F12006A4
:100CF0008B4022FA06F71F4320FA06FC04FA01F3A0
:100D000043EA0C03F44000FA01F8380C4FEA1349A7
:100D1000B4FBF0FE1FFA87FC00FB1E4449EA0444C2
:100D20000EFB0CF9A14502FA01F20AD93C190EF1A9
:100D3000FF3A80F08480A14540F28180AEF1020E3E
:100D40003C44A4EB09041FFA83F9B4FBF0F300FB65
:100D5000134449EA044403FB0CFCA44507D93C199D
:100D600003F1FF3067D2A44565D9023B3C4443EA16
:100D70000E40A0FB0293A4EB0C049C42CE469C4682
:100D800051D34ED055B1B8EB0E0364EB0C0404FA0A
:100D900006F6CB401E43CC40C5E90064002150E775
:100DA000C2F1200320FA03F10CFA02FC24FA03F347
:100DB00094400C434FEA1C4800FA02FE1FFA8CF7DD
:100DC000B3FBF8F008FB1031230C43EA014300FBAE
:100DD00007F1994208D91CEB030300F1FF362CD22E
:100DE00099422AD9023863445B1AA4B2B3FBF8F1E2
:100DF00008FB113344EA034401FB07F3A34208D97B
:100E00001CEB040401F1FF3613D2A34211D90239BD
:100E10006444E41A41EA004139E70446F0E6084632
:100E200006E7C845AED2B9EB020E63EB070C0138FA
:100E3000A8E73146EDE7034699E73046D4E7D646C2
:100E40007FE7634402384DE70646234608460FE72E
:100E5000023E634430E700BF03685A004CBF43F0D2
:100E6000004323F000431844704700BF2DE9F843C6
:100E700049B34F1E044615463E464FF0000909EBA4
:100E8000060101EBD171491004EBC1084046FFF7A0
:100E9000E3FF8F4203464FEAC1000FD00830AB4258
:100EA000204407D8FFF7D8FF0138A84208D201F143
:100EB0000109E4E7894506D04E1EE0E7AB42F9D8C8
:100EC0004046BDE8F8834FF000084046BDE8F8838F
:100ED000012807D0022807D0044B00280CBF184671
:100EE0000020704702487047024870479915000873
:100EF0009D150008A115000830B5214B83B00446AC
:100F00008D1E1BB301A92846AFF3008088B3019959
:100F10002A46FFF7ABFF014658B3FFF79DFF4B682A
:100F2000A064012B28D0002B01F104001FDBFFF788
:100F300093FF002323650368E064002B0DDBFFF7BC
:100F40008BFF03460020236103B030BD0D4B0E49DB
:100F5000C91AC91018460191DAE7C3F30360FFF715
:100F6000B7FF034628B10020236103B030BD012341
:100F7000E0E700230920E6E700230520E3E700BFC0
:100F800000000000D0BF0008C0C100080368DA07F5
:100F900010B5044606D49B0700F1480009D500F0BF
:100FA00069FC2368590709D51A070ED5DB0613D546
:100FB00010BD00F057FC23685907F5D404F1D000A8
:100FC00000F060FC23681A07F0D404F5A87000F064
:100FD00061FC2368DB06EBD404F5E870BDE8104043
:100FE00000F09CBC092070470346006800B118441B
:100FF000704700BF704700BF70B504460E46316CA5
:101000002046FFF779FF054688B9326C6261236993
:1010100032462146012098470828F0D0072806D1FB
:101020002846316CFFF7E6FF301D00F00FFC0AF098
:1010300057FA00BF2DE9F0470D1DD0F80C80D0F80D
:101040001890074614460FCDADF5727D0DF10C0CCE
:10105000ACE80F000FCDACE80F000FCDACE80F00EF
:1010600095E80F0002AE4FF0000E8CE80F00C6F8B6
:1010700000E020E0336C7B614FF4F07231467AA8D7
:101080000AF012FB3B697AAA394650469847889B7A
:1010900073642146CDE9006905463B463A46012086
:1010A000C047044618BB4FF4F0727AA930460AF0E4
:1010B000FBFA082D19D1316C3846FFF71DFF0934B2
:1010C0005FFA84FA05460028D4D0B36B73643A46BD
:1010D000CDE900693B464AF010010120C04730B914
:1010E00028460DF5727DBDE8F087072D05D009254E
:1010F00028460DF5727DBDE8F0872046316CFFF77C
:1011000079FF03A800F0A2FB406C7047F0B5CB6BF1
:101110000B6401F1040C0E460546BCE80F00F9B063
:1011200001AC0FC4BCE80F000FC4BCE80F000FC433
:101130009CE80F004FF0FF3784E80F00009706E0AF
:101140002B696A46294698470828044608D1109911
:101150002846FFF7D1FE0028F2D0092079B0F0BD73
:101160006846FFF713FF062CF7D131462846FFF7F4
:1011700043FF00BFC160D96B826119640022194628
:1011800058E700BF70B5C66843690B64AEB9036920
:101190000A4604460D46014602209847072805D016
:1011A00008280FD129462046FFF726FF3046296C34
:1011B000FFF720FF281D00F049FB0122FFF73AFF4F
:1011C0000AF08EF90AF08CF9C2681AB1CA6B0A6487
:1011D00000222FE79AE700BF704700BF83680146EF
:1011E0000BB1012018477047012910D009D883B9E5
:1011F0000F2A0ED800EB820218465368009A13603B
:101200007047033901298CBF02200120704708462E
:1012100070470220704700BF00B585B00A46002322
:1012200003A900911946FFF7DFFF039805B05DF8A9
:1012300004FB00BF012910D009D883B90F2A0ED8AA
:10124000009900EB82020968516018467047033923
:1012500001298CBF022001207047084670470220F8
:10126000704700BF10B584B0002303AC0392009414
:101270000A461946FFF7DEFF04B010BD70B5D36B08
:10128000136402F1040C05460C46BCE80F00ADF5F2
:101290000E7D0DF15C0EAEE80F00BCE80F00AEE86D
:1012A0000F00BCE80F00AEE80F009CE80F004FF005
:1012B000FF368EE80F00169610E0FFF7D3FF2146A9
:1012C00016A8A847034616AA6946082083B9049BB6
:1012D0009847052806460CD0092809D02699684663
:1012E000FFF70AFE03466A460C2116A8002BE4D03D
:1012F000092616A8FFF74AFE30460DF50E7D70BD93
:101300002DE9F04F9346CA6C89B00D4652F8041B84
:10131000069200F0030C002B79D00C0C8DF81D40C8
:101320000904E4B2059102EB840202212F6D8DF8CD
:101330001C10BCF1020F08BFAA6B17F001070CD0FC
:1013400005A9584600F084FB18B9082009B0BDE88B
:10135000F08F092009B0BDE8F08F1668002EEFD09D
:1013600000F008010191B246029764469946B9F12E
:10137000020F48D0B2F800A0568802F10408AA6C07
:1013800026F001030F2158469F18FFF745FF8742BB
:1013900037D82AF001023A44824294BF0022012247
:1013A000730003F002030AF0010A43EA0A03012B67
:1013B00047D0022B31D0002BCBD114B1002A40F002
:1013C000C98008F10402D2F800A0BAF1000FCED112
:1013D00005A95846029F00F03BFB0028B9D1002F19
:1013E000B3D00F215846FFF717FF0E21024658468B
:1013F000FFF738FF674A0F215846FFF733FF0720F2
:10140000A8E70022CCE7566802F10808B7E709020E
:1014100005918DF81D30032188E7D8F8006026F08B
:101420000043002C44D122B1019A002A5AD0002B4B
:1014300058D0002E01DA08F10408013308EB8302CA
:10144000C1E7ECB9CAB1D8F80430D8F80020991C2B
:101450004FEAD2723FF47DAF05F158010133049198
:1014600000F08B8008F10400FFF7BEFD04AB0146DD
:101470002846AFF30080002857D108F10802A2E700
:101480000D215846FFF7C8FE2B6A8342F5D1AB6A9F
:101490009845F2D14046FFF7DFFC0F21024658463F
:1014A000FFF7E0FE2A4600215846FFF7DBFEA6E7DD
:1014B0000D2158460393FFF7AFFE2A6A039B824231
:1014C000B7D1AA6A9045B4D100270422C5E90B72AE
:1014D0004244AB626A63D8F80020BA4255DB01226D
:1014E0000292AAE7039408F1040A002605F15807BE
:1014F0001C460DE050460497FFF776FD002201469A
:1015000004AB284601360AF1040AAFF30080E0B9C3
:10151000A642EFD10D215846FFF77EFE049BC5F889
:101520002880C5E90803062014E704460D21584623
:10153000FFF772FE049E2862022C04BFEE6205F1E2
:101540002C06C5E90968062004E72346D8F80060A0
:10155000039C6EE74046FFF77FFC08F10402044657
:10156000AA632846AFF3008000283FF4F2AE22467B
:101570000F215846FFF776FE41E70C4658460D21ED
:10158000FFF74AFE26462862DBE7581C08EB80007E
:1015900081E700BF000000000023B1E60123AFE6B1
:1015A0000223ADE62DE9F0430646C3B015461C46BE
:1015B000042900F2D180DFE801F0AC51CF2A03000A
:1015C000002C40F0C980102A00F2C6800368DC06B7
:1015D00000F1E78020AF384600F0AAF9B46B394635
:1015E00000234FF0010C0CFA03F22A42204603F1CB
:1015F000010303D050F8042B0A600446042B01F1C8
:101600000401F0D1B463384600F088F999E0032C66
:1016100040F0A28094B204EB1243102B4FEA124523
:1016200000F29A8003681F0700F1C38020AF38469C
:1016300000F052F9B26B07EBC50154B10B46D01A5A
:1016400001EBC401E4001D5843F8045B8B42FAD15E
:101650002244B263384600F01DF972E0012C4FEAD3
:10166000124895B271D0052C76D108EB0509B9F175
:10167000200F71D8B8F10F0F72D8B9F1100F0368AD
:1016800000F29F80D90708D523F00103304643F0CC
:10169000020340F8483B00F0F1F820AF384600F074
:1016A000EDF8B36B002D00F0B9806D006A1E07EBFA
:1016B000C80100250132043903EB820253F8040B00
:1016C00041F8040F9342F9D1002D00F0A18041466A
:1016D000102938BF10216B0010396F46013B07EB12
:1016E000C1010133043902EB830352F8040B41F8C2
:1016F000040F9A42F9D1012C00F08880B8F10F0F45
:10170000B26302D820A800F0B5F8384600F0BAF865
:1017100017E00CBB806B23461FFA82FC0124371DA7
:1017200004FA03F111EA0C0F024604D052F8041B2C
:1017300047F8231010460133102BF1D1AC0400D42C
:10174000B063002043B0BDE8F08308EB0503102B25
:1017500002D8B8F1100F14D1022043B0BDE8F083D5
:10176000002DEED003685A075CD46F46384600F06F
:101770008DF8B26B6B00A8F11001013B07EBC101C2
:10178000AFE70368DA0759D420AF384600F06EF8A7
:10179000B36B002D89D10433B363384600F062F88F
:1017A000CFE723F01003036000F5E87000F0C0F805
:1017B00010E723F00803036000F5A87000F08CF830
:1017C00034E7D90708D523F0010343F0020340F8BA
:1017D000483B00F053F83368580706D5304623F0ED
:1017E000040340F8D03B00F051F820AF384600F039
:1017F00045F8684600F04AF8C8F110025200B36B91
:10180000A9F11005013A07EBC80153E720AFC2E781
:10181000012CC0D0B8F10F0FB36392D8384600F056
:1018200029F88EE723F0040340F8D03B6F4600F020
:101830002DF8384600F02AF8B26B9BE7304623F0CB
:10184000030340F8483B00F011F89DE700F1340134
:1018500091E838009C46A6464CF8045D90E8FF0FDE
:10186000E54600BD90EC210B704700BF80EC210BDA
:10187000704700BF90EC200B704700BF80EC200B3E
:10188000704700BFD0EC200B704700BFC0EC200BAE
:10189000704700BFF0EC0201F0EC0211F0EC022105
:1018A000F0EC0231F0EC0241F0EC0251F0EC02619C
:1018B000F0EC0271F0EC0281F0EC0291F0EC02A18C
:1018C000F0EC02B1F0EC02C1F0EC02D1F0EC02E17C
:1018D000F0EC02F1704700BFE0EC0201E0EC021115
:1018E000E0EC0221E0EC0231E0EC0241E0EC0251DC
:1018F000E0EC0261E0EC0271E0EC0281E0EC0291CC
:10190000E0EC02A1E0EC02B1E0EC02C1E0EC02D1BB
:10191000E0EC02E1E0EC02F1704700BFB0FC0181B5
:10192000B0FC0191B0FC01A1B0FC01B1704700BF57
:10193000A0FC0181A0FC0191A0FC01A1A0FC01B1CF
:10194000704700BFEC4600B52DE900502DE9FF1FA0
:101950004FF000032DE90C0001A9FFF7D7FBDDF8DC
:1019600040E012B0704700BFEC4600B52DE90050D2
:101970002DE9FF1F4FF000032DE90C0001A9FFF72F
:1019800001FCDDF840E012B0704700BFEC4600B546
:101990002DE900502DE9FF1F4FF000032DE90C0049
:1019A00001A9FFF711FCDDF840E012B0704700BF5D
:1019B000EC4600B52DE900502DE9FF1F4FF0000364
:1019C0002DE90C0001ABFFF7D5FBDDF840E012B0CC
:1019D000704700BFEC4600B52DE900502DE9FF1F10
:1019E0004FF000032DE90C0001AAFFF747FCDDF8DA
:1019F00040E012B0704700BF027A03467AB9427ADB
:101A0000A2B14168013A10B44272086803220C1D69
:101A10001A7202025C60000E10BC1A607047006807
:101A2000013A1A7202021A60000E7047B020704725
:101A300000B585B0002303AA009219460C22FFF7D7
:101A4000D3FB039805B05DF804FB00BFF0E700BFCF
:101A50002DE9F043064685B00D464FF000082846B4
:101A6000FFF7CAFFB028044600F0DA80070646D523
:101A700000F0F003802B5ED0B02B73D01BD8902BDE
:101A800000F09B80A02B12D1C34303F007034FF457
:101A90007F621A41010702F47F6201D542F480425D
:101AA000002319463046FFF77DFD0028D7D00920D6
:101AB00005B0BDE8F083C02B6DD1C62800F093803F
:101AC000C72800F0B28000F0F803C02B00F0D280ED
:101AD000C82800F0DD80C928E9D12846FFF78CFF2F
:101AE000020300F00F0002F47022013002430121D2
:101AF00005233046FFF756FD0028B0D0D7E7830016
:101B0000DBB21F1D0DF10C0900231946CDF8009022
:101B10000D223046FFF768FB039BCDF8009060066E
:101B20004CBFDF1BFF1800230D22194630460397D8
:101B3000FFF780FB93E72846FFF75EFF2402204370
:101B4000B0F5004FB3D004010023A2B219463046CD
:101B5000FFF728FD0028AAD114F4004F18BF4FF05A
:101B600001087CE7B12851D0B22800F0AD80B3283D
:101B70006DD000F0FC03B42B99D000F007020132C5
:101B8000012342F4002219463046FFF70BFD0028DE
:101B90003FF465AF8BE700F0F803D02B87D100F05E
:101BA00007020132052342F4002201213046FFF7EB
:101BB000F9FC00283FF453AF79E700F00D030D2B3B
:101BC0003FF475AF03AF002300F00F0219460097F2
:101BD0003046FFF709FB002300970D2219463046D7
:101BE000FFF728FB3BE72846FFF706FF020300F05C
:101BF0000F00013002F470220323024319463046DD
:101C0000FFF7D0FC00283FF42AAF50E72846FFF743
:101C1000F3FE431EDBB20E2B02467FF641AF46E7D2
:101C2000B8F1000F40D0002042E72846FFF7E4FE5D
:101C3000431EDBB20E2B02463FF639AF00230421D0
:101C40003046FFF7AFFC00283FF409AF2FE72846E6
:101C5000FFF7D2FE020300F00F00013002F4702201
:101C60000123024319463046FFF79CFC00283FF44D
:101C7000F6AE1CE700F00F020132032342F42022EB
:101C800019463046FFF78EFC00283FF4E8AE0EE719
:101C90002846FFF7B1FE00F0F00200F00F0310320B
:101CA000013343EA023222E703AC434641460E22A7
:101CB00000943046FFF798FA009443460F224146BD
:101CC0003046FFF7B7FAAEE700230DF10C090D22FD
:101CD0001946CDF800903046FFF786FA2846FFF700
:101CE0008BFE0206039C4FF002070BD500F07F002D
:101CF000B840044428460394FFF77EFE030607F12C
:101D00000707F3D400FA07F204F501742244002314
:101D10000392CDF800900D2219463046FFF78AFA5B
:101D20009DE600BF10B5C26C536884B04FF0030C41
:101D300008321C0208461B0E01A9019402928DF87C
:101D40000CC08DF80D30FFF783FE04B010BD00BF4E
:101D500008B5FFF77BFE806C08BD00BF08B5FFF734
:101D600075FEC06CC379023300EB830008BD00BF71
:101D7000704700BF10F8012B11F8013B012A28BF62
:101D80009A42F7D0D01A704708B50E480E4B036040
:101D90000323436000238360C3604FF41022026179
:101DA0004FF4001242610376437601228276C276B6
:101DB0000377437700F076FC00B908BD00F0B4F972
:101DC000FBE700BF680700200064004008B50E482C
:101DD0000E4B03600323436000238360C3604FF412
:101DE000102202614FF40012426103764376012211
:101DF0008276C2760377437700F054FC00B908BDC1
:101E000000F092F9FBE700BF4007002000680040A7
:101E100010B58AB00023059306930793089309939E
:101E200003683D4A934204D03C4A934234D00AB0FE
:101E300010BD3B4A136801331360012B1FD00024EF
:101E40000194384B1A6B42F008021A631B6B03F0C3
:101E500008030193019B0323059302220692089332
:101E60000923099305A9304801F0C6FA2246052145
:101E7000142001F047F8142001F054F8D7E70023AC
:101E80000093284B1A6C42F000721A641B6C03F02A
:101E900000730093009BD2E700230293214B1A6C3E
:101EA00042F080621A641B6C03F080630293029B11
:101EB0001B4A136801331360012B20D000240494C3
:101EC000184B1A6B42F002021A631B6B03F00203F9
:101ED0000493049B60230593022306930323089332
:101EE0000923099305A9114801F086FA2246052124
:101EF000412001F007F8412001F014F897E7002392
:101F00000393084B1A6C42F000721A641B6C03F0C6
:101F100000730393039BD1E7006400400068004016
:101F20003C07002000380240000C02400004024040
:101F300010B582B000240094124B1A6B42F40012C8
:101F40001A631A6B02F400120092009A01941A6B41
:101F500042F480021A631B6B03F480030193019B1C
:101F6000224605210C2000F0CDFF0C2000F0DAFF06
:101F700022460521392000F0C5FF392000F0D2FFAC
:101F800002B010BD00380240034B0360034B0B60EE
:101F900080231360704700BF900900209007002045
:101FA00010B59CB0244C0DF1540CA646BEE80F00B1
:101FB000ACE80F009EE807008CE80700002115A898
:101FC00005F053F81D4B18600DF1380C04F11C0E90
:101FD000BEE80F00ACE80F009EE807008CE80700A1
:101FE00000210EA805F041F8154B18600DF11C0CEE
:101FF00004F1380EBEE80F00ACE80F009EE80700C1
:102000008CE80700002107A805F02FF80D4B186099
:10201000EE4604F1540CBCE80F00AEE80F009CE85B
:1020200007008EE807000021684605F01EF8064B01
:1020300018601CB010BD00BFD0B90008140B002000
:10204000100B00200C0B0020080B002000B58DB0F9
:1020500000220792089209920A920B9200922A4B50
:10206000196B41F002011963196B01F00201009133
:1020700000990192196B41F040011963196B01F04D
:102080004001019101990292196B41F0010119631C
:10209000196B01F00101029102990392196B41F051
:1020A00008011963196B01F0080103910399049267
:1020B000196B41F004011963196B01F004010491DB
:1020C00004990592196B41F080011963196B01F0B5
:1020D00080010591059906921A6B42F010021A636D
:1020E0001B6B03F010030693069B4FF400730793DA
:1020F0004FF4881308930123099307A9034801F0BB
:102100007BF90DB05DF804FB00380240001002407E
:1021100008B50268034B9A4200D008BD00F09CFA53
:10212000FBE700BF0020004072B6FEE700B595B0A7
:102130003022002108A809F0F5F900230393049345
:102140000593069307930193204A116C41F0805147
:102150001164126C02F080520192019A02931C4B9E
:102160001A6842F480421A601B6803F480430293A9
:10217000029B012308934FF48033099302230E93AB
:102180004FF480020F9206221092A822119212930D
:102190000723139308A802F05FF898B90F2303935D
:1021A00002230493002305934FF4A05306934FF4A6
:1021B00080530793052103A802F09EFA20B915B0B9
:1021C0005DF804FBFFF7B0FFFFF7AEFF00380240F9
:1021D0000070004008B500F025FAFFF7A7FFFFF7F1
:1021E00035FFFFF7A5FE00F003F900F021F9FFF736
:1021F000CBFDFFF7EBFDFFF7D3FE04F031FFFEE769
:1022000000B583B0002200920D4B596C41F480411F
:102210005964596C01F48041009100990192196C44
:1022200041F0805119641B6C03F080530193019BB2
:102230000F216FF0010000F065FE03B05DF804FBB4
:102240000038024030B589B0044600230193214B89
:102250001A6C42F480721A641B6C03F4807301934D
:10226000019B02A903A802F01DFB069BCBB902F05B
:10227000F9FA0346184AA2FB03239B0C013B1748BB
:10228000174A026040F2E732C260436000230361F4
:102290008360836102F08AFC054630B1284609B0AC
:1022A00030BD02F0DFFA4300E4E70C4802F01AFB0D
:1022B00005460028F2D12D2000F034FE0F2C01D964
:1022C0000125EBE7002221462D2000F01BFE054BE7
:1022D0001C60E3E70038024083DE1B43180B00203C
:1022E000002000400C000020FEE7FEE7FEE7FEE7CE
:1022F000FEE7704708B5024800F090FF08BD00BF38
:10230000C40B002008B5024800F083FC08BD00BFE4
:102310006807002008B5024802F054FE08BD00BF5F
:102320006C0C002008B5024802F024FB08BD00BF79
:10233000180B002008B5024800F070FF08BD00BF70
:10234000640B002008B5024800F063FC08BD00BF24
:102350004007002008B5024801F075FC08BD00BF29
:102360000C61002008B5024802F02CFE08BD00BF39
:10237000240C00200120704708B509F05DF91623F0
:1023800003604FF0FF3008BD08B54FF0FF31FFF795
:10239000F3FFFEE710B503460C4A0D490D480068EF
:1023A00040B10C4800680344521A934206D8094AC7
:1023B000136010BD0748084C0460F2E709F03CF9CF
:1023C0000C2303604FF0FF30F3E700BF0000022052
:1023D00000200000600B0020A86F0020034AD2F804
:1023E000883043F47003C2F88830704700ED00E095
:1023F00008B50C480C4B03600C4B43604FF4805302
:1024000083600023C3604FF4806202610C2242614A
:102410008361C36102F0EEFC00B908BDFFF784FEE2
:10242000FBE700BF6C0C002000480040A0860100C4
:1024300008B50A480A4B03604FF4E13343600023B8
:102440008360C36003610C2242618361C36102F057
:10245000D1FC00B908BDFFF767FEFBE7240C0020A4
:102460000014014030B58BB0044600230593069359
:1024700007930893099303684C4A934204D04C4A4B
:1024800093424AD00BB030BD00250195494B1A6CE0
:1024900042F480221A641A6C02F480220192019A9A
:1024A00002951A6B42F004021A631B6B03F00403DB
:1024B0000293029B4FF44063059302230693032388
:1024C00008930723099305A93B4800F095FF3B4873
:1024D0003B4B03604FF0006343608560C5604FF481
:1024E00080630361456185614FF48073C3614FF47C
:1024F00040330362456200F099FD58B92F4BE36306
:102500009C6300220521272000F0FCFC272000F01E
:1025100009FDB7E7FFF708FEF0E700250395254B17
:102520005A6C42F020025A645A6C02F02002039264
:10253000039A04951A6B42F040021A631B6B03F076
:1025400040030493049B4FF48443059302230693B2
:10255000032308930823099305A91A4800F04CFFA8
:1025600019481A4B03604FF0206343608560C560D3
:102570004FF480630361456185614FF48073C361EB
:102580004FF400330362456200F050FD58B90E4B22
:10259000E3639C6300220521472000F0B3FC472041
:1025A00000F0C0FC6EE7FFF7BFFDF0E70048004019
:1025B000001401400038024000080240C40B002013
:1025C0002860024000180240640B0020286402408A
:1025D000DFF834D0FFF702FF0C480D490D4A002305
:1025E00002E0D458C4500433C4188C42F9D30A4AC8
:1025F0000A4C002301E013600432A242FBD309F02D
:1026000021F8FFF7E7FD70470000022000000020DE
:102610001C070020E0C1000820070020A86F002050
:10262000FEE7000008B50B4B1A6842F400721A600E
:102630001A6842F480621A601A6842F480721A6062
:10264000032000F04DFC0F20FFF7FCFDFFF7D8FD45
:10265000002008BD003C0240034A1168034B1B7870
:102660000B441360704700BFB40C0020080000202A
:10267000014B1868704700BFB40C002038B5044601
:10268000FFF7F6FF0546B4F1FF3F02D0044B1B787D
:102690001C44FFF7EDFF401BA042FAD338BD00BF3A
:1026A00008000020002800F0A18038B5044690F80A
:1026B0002030D3B12268136843F001031360FFF7A1
:1026C000D7FF054623685A6812F0010F10D1FFF7B3
:1026D000CFFF401B0A28F5D9636A43F400336362D5
:1026E000052384F82030012038BDFFF791FBE1E796
:1026F0001A6822F002021A60FFF7BAFF0546236843
:102700005A6812F0020F0DD0FFF7B2FF401B0A28E3
:10271000F5D9636A43F400336362052384F82030FB
:102720000120E1E7227E012A3DD01A6822F08002D2
:102730001A60637E012B3BD02268136823F04003AC
:102740001360A37E012B39D02268136823F0200385
:102750001360E37E012B37D02268136843F0100327
:102760001360237F012B35D02268136823F0080300
:102770001360637F012B33D02268136823F00403B6
:102780001360A368E2681343226913436269134329
:102790006268013A21681343CB6100206062012323
:1027A00084F82030A0E71A6842F080021A60C0E77F
:1027B0002268136843F040031360C2E7226813687D
:1027C00043F020031360C4E72268136823F010036A
:1027D0001360C6E72268136843F008031360C8E774
:1027E0002268136843F004031360CAE701207047AE
:1027F00090F82030013BDBB2012B05D9436A43F44A
:10280000802343620120704730B5464BD3F8002245
:1028100042F00102C3F80022D3F8002222F47C52D5
:10282000C3F80022D3F80022486A42EA0022C3F823
:1028300000224A6902F01F02012000FA02F2D3F8D6
:102840001C026FEA020C20EA0200C3F81C02CB69EA
:10285000C3B9344BD3F80C020CEA0000C3F80C02E5
:102860008C884869CD6844EA0544483043F83040D4
:102870008C68088840EA04404C6904F1480E03EB78
:10288000CE035860CB69012B1ED08B69002B33D14E
:102890002448D0F804320CEA0303C0F804320B6970
:1028A0008BBB2048D0F814320CEA0303C0F8143272
:1028B0000B6A012B2ED01B4AD2F8003223F0010301
:1028C000C2F80032002030BD164BD3F80C02104382
:1028D000C3F80C028C8848690D6844EA0544483006
:1028E00043F8304088894C698D6840EA0540483497
:1028F00003EBC4035860C8E70A48D0F80432134316
:10290000C0F80432CBE70748D0F814321343C0F8BC
:102910001432CDE70349D1F81C321343C1F81C32FD
:10292000C9E700BF0064004070B5044690F820502D
:10293000EDB2012D06D0436A43F400234362012522
:10294000284670BD022380F820300268136823F007
:1029500001031360FFF78CFE064623685B6813F0E3
:10296000010F0CD0FFF784FE831B0A2BF5D9636A95
:1029700043F400336362052384F82030E0E7002548
:102980006562DDE730B590F820C00468A4680CF1FA
:10299000FF3C5FFA8CFCBCF1010F62D814F0E05FE1
:1029A00059D0C4F3016C012404FA0CF41C608B6848
:1029B000002B3DD10D68CB68046843EA45550CF106
:1029C00018031B01E55003680C690CF1180E03EBAA
:1029D0000E135C600B7D012B35D0D17993791B04EC
:1029E00043EA0163517943EA0123147901682343DF
:1029F00001EB0C11C1F88C31D17893781B0443EAB8
:102A00000163517843EA0123117802680B4302EB1A
:102A10000C12C2F8883102680CF1180C4FEA0C1C39
:102A200052F80C3043F0010342F80C3000201DE056
:102A30004C6843EAC403CC6823430CF11804240116
:102A400005682B51BFE7036803EB0E13596841F487
:102A500080715960C1E7436A43F400134362012067
:102A600004E0436A43F480234362012030BD90F8C0
:102A700020C00CF1FF3C5FFA8CFCBCF1010F00F2AE
:102A8000A58030B451B90468E46814F0030F10D184
:102A9000436A43F40013436201207EE00468246922
:102AA00014F0030F05D1436A43F40013436201207D
:102AB00073E0056801F11B0424012C5904F004049F
:102AC0009460002C6BD1056801F11B0424012C5982
:102AD000640D1460046801F11B0C4FEA0C1C54F8DF
:102AE0000C4004F00204D4600468A444DCF80450F0
:102AF00015F0080F5BD008241461046801F11B0C69
:102B000004EB0C146468C4F307249461046804EBB8
:102B10000C146468240C5461026802EB0112D2F8B0
:102B2000B8211A70026802EB0112D2F8B821C2F380
:102B300007225A70026802EB0112D2F8B821C2F3E0
:102B400007429A70026802EB0112D2F8B821120E05
:102B5000DA70026802EB0112D2F8BC211A71026825
:102B600002EB0112D2F8BC21C2F307225A710268AB
:102B700002EB0112D2F8BC21C2F307429A7102683B
:102B800002EB0112D2F8BC21120EDA71C1B902684F
:102B9000D36843F02003D360002030BC7047056841
:102BA00001F11B0424012C59E408546092E701F15F
:102BB0001B0504EB0514646804F00F0414619CE722
:102BC0000268136943F020031361E5E7436A43F4A5
:102BD000802343620120704790F82030013BDBB234
:102BE000012B05D9436A43F48023436201207047D7
:102BF000026853690B435361002070477047704768
:102C0000704770477047704770477047704770470C
:102C100070472DE9F84F054603685C69D3F80480D6
:102C20009F68D3F80CB0D3F810A0D3F8189014F024
:102C300001063BD017F0010616D001229A6017F06A
:102C4000020F08D117F0040F0CD117F0080606D0B8
:102C50004FF4805608E0FFF7D1FF002604E0FFF7AD
:102C6000D0FF01E04FF4006617F4807F0DD02B6891
:102C70004FF480729A6017F4007F40F0868017F45A
:102C8000806F00F0868046F4005617F4803F0DD028
:102C90002B684FF480329A6017F4003F40F0838035
:102CA00017F4802F00F0838046F4004614F0080FDC
:102CB00007D01BF0100F04D046F400762B681022CA
:102CC000DA6014F0040F02D01BF0080F79D114F071
:102CD000020F04D02B68DB6813F0030F78D114F0D7
:102CE000400F07D01AF0100F04D046F480662B680E
:102CF00010221A6114F0200F02D01AF0080F6BD1C5
:102D000014F0100F04D02B681B6913F0030F6AD165
:102D100014F4003F02D018F0100F68D114F4803F73
:102D200002D018F0080F69D114F4004F7AD018F0CF
:102D3000040F74D014F4807F04D019F0010F01D077
:102D400046F0010614F4007F04D019F0020F01D000
:102D500046F0020614F4806F04D019F0040F01D07D
:102D600046F0040614F4006F59D019F0700956D0DB
:102D7000B9F1400F65D058D8B9F1200F5ED0B9F144
:102D8000300F42D146F0200644E02846FFF737FFD7
:102D90007BE717F4006F02D046F4804675E72846BB
:102DA000FFF730FF71E72846FFF72AFF7EE717F4A9
:102DB000002F02D046F4803678E72846FFF723FF3D
:102DC00074E72B680822DA602846FFF71DFF7EE7CC
:102DD000284605F0DBFC82E72B6808221A612846AA
:102DE000FFF713FF8CE7284605F0BAFC90E72B6845
:102DF00010225A602846FFF709FF8FE72B68082248
:102E00005A602846FFF703FF8EE7B9F1100F01D192
:102E100046F008062A68936923F0700393612B68D3
:102E200004225A609EB9BDE8F88FB9F1500F0BD05B
:102E3000B9F1600FEED146F48076EBE746F010066C
:102E4000E8E746F04006E5E746F08006E2E76B6A11
:102E500033436B622846FFF7DBFEE4E7002807DB1D
:102E600000F01F02400901239340024A42F820303B
:102E7000704700BF00E100E0002808DB0901C9B28B
:102E800000F1604000F5614080F80013704700F0E9
:102E90000F000901C9B2014B1954704714ED00E04D
:102EA00000B500F00700C0F1070CBCF1040F28BF0B
:102EB0004FF0040C031D062B0FD9C31E4FF0FF3E2D
:102EC0000EFA0CF021EA000199400EFA03FE22EA04
:102ED0000E0241EA02005DF804FB0023EEE7000069
:102EE000074AD36823F4E0631B041B0C000200F4C0
:102EF000E060034343F0BF6343F40033D3607047A3
:102F000000ED00E010B50446054BD868C0F3022080
:102F1000FFF7C6FF01462046FFF7AEFF10BD00BF1A
:102F200000ED00E008B5FFF799FF08BD30B4056873
:102F30002C6824F480242C60046863608368402B30
:102F400005D0036899600368DA6030BC7047036895
:102F50009A600368D960F8E710B40368D9B21039F1
:102F60000C4AA2FB014212090B4CA25CC2655F290C
:102F700009D923F47F7323F0030304338365806D41
:102F80005DF8044B704723F47F7323F003038365DC
:102F9000F5E700BFABAAAAAAF0BA0008836A826963
:102FA00092B9012B0AD0022B02D00BB1002070473E
:102FB000C36A13F0807F28D100207047C36AB3F141
:102FC000C07F24D000207047B2F5005F09D0022BEB
:102FD00025D9032B25D1C36A13F0807F23D100208C
:102FE0007047032B03D8DFE803F01404140A002011
:102FF0007047C36A13F0807F0DD100207047C36A09
:10300000B3F1C07F09D00020704701207047012034
:103010007047012070470120704701207047012050
:1030200070470020704701207047000070B50446CB
:10303000FFF71EFB002C5BD00546022384F83530D9
:10304000002384F834302268136823F001031360EE
:1030500023681A6812F0010F0AD0FFF709FB431B1F
:10306000052BF5D920236365032084F8350070BD56
:103070001A68204911406268A0680243E068024370
:103080002069024360690243A0690243E069024388
:10309000206A02430A43616A04291ED01A60266826
:1030A000756925F00705636A1D43042B07D1A36AE0
:1030B0001D43E36A1BB12046FFF770FF90B97561AD
:1030C0002046FFF749FFE26D3F23934083600020D5
:1030D0006065012384F83530C9E7E16A206B01435C
:1030E0000A43DBE740236365012084F83500BEE72F
:1030F0000120BCE73F8010F038B50446856D90F89C
:10310000340001282BD0012084F8340094F83500D5
:10311000C0B2012804D0002384F83430022038BD26
:10312000022084F83500002060652046FFF7FEFE8F
:10313000E26D3F239340AB602268136843F01603AF
:103140001360236C23B12268136843F008031360F3
:103150002268136843F0010313600020DFE70220B8
:10316000DDE770B50446866DFFF782FA94F83530D6
:10317000DBB2022B06D080236365002384F8343051
:10318000012070BD05462268136823F01603136002
:103190002268536923F080035361236CE3B12268F2
:1031A000136823F0080313602268136823F00103F7
:1031B000136023681B6813F0010F11D0FFF758FA52
:1031C000431B052BF5D920236365032084F83500C4
:1031D000002384F83430D4E7A36C002BDFD1E3E77D
:1031E000E26D3F239340B360012384F83530002023
:1031F00084F83400C5E790F83530DBB2022B03D0F9
:103200008023436501207047052380F8353002682C
:10321000136823F00103136000207047F0B583B0FA
:10322000044600230193724B1D68724BA3FB0535C6
:10323000AD0A876D3E68C26D08239340334210D0BB
:1032400003681A6812F0040F0BD01A6822F0040207
:103250001A60C26D08239340BB60436D43F00103C5
:103260004365E26D01239340334209D022685269DD
:1032700012F0800F04D0BB60636D43F002036365FE
:10328000E26D04239340334209D02268126812F0A1
:10329000020F04D0BB60636D43F004036365E26D0D
:1032A00010239340334224D02268126812F0080F92
:1032B0001FD0BB6023681A6812F4802F0DD01B68E2
:1032C00013F4002F04D1236C9BB12046984710E0E3
:1032D000A36C73B1204698470BE01A6812F4807F04
:1032E00003D11A6822F008021A60236C0BB1204641
:1032F0009847E26D20239340334255D022681268EC
:1033000012F0100F50D0BB6094F83530DBB2052BB3
:103310000ED023681A6812F4802F33D01B6813F480
:10332000002F2AD1636C002B3ED0204698473BE00B
:103330002268136823F0160313602268536923F090
:1033400080035361236CA3B12268136823F0080340
:103350001360E26D3F239340BB60012384F8353056
:10336000002384F83430236D002B3FD0204698474B
:103370003CE0A36C002BE7D1EBE7E36BA3B1204665
:10338000984711E01A6812F4807F09D11A6822F078
:1033900010021A60012384F83530002384F8343099
:1033A000E36B0BB120469847636DFBB1636D13F07F
:1033B000010F17D0052384F835302268136823F0F5
:1033C00001031360019B01330193AB4204D82368CE
:1033D0001B6813F0010FF5D1012384F83530002369
:1033E00084F83430E36C0BB12046984703B0F0BD4D
:1033F00004000020B5814E1B00230F2B00F2E98052
:1034000070B582B065E085684FEA430E032404FA84
:103410000EF425EA0405CC6804FA0EF42C4384600B
:10342000446824EA02044A68C2F300129A40224324
:1034300042605CE0DC08083450F8242003F0070503
:10344000AD004FF00F0E0EFA05FE22EA0E0E0A69CD
:10345000AA4042EA0E0240F824205CE0072200E085
:10346000002202FA0EF22A4302345A4D45F8242073
:10347000594A94686FEA0C0224EA0C054E6816F467
:10348000801F01D04CEA0405534CA560E46802EAB1
:1034900004054E6816F4001F01D04CEA04054E4C9A
:1034A000E560646802EA04054E6816F4003F01D046
:1034B0004CEA0405484C6560246822404D6815F4C8
:1034C000803F01D04CEA0402434C226001330F2BB1
:1034D0007DD801229A400C6804EA020C32EA040406
:1034E000F4D14C6804F00304013C012C8BD94A68E8
:1034F00002F00302032A09D0C4685D000322AA4037
:1035000024EA02048A68AA402243C2604A6802F0A0
:103510000302022A8ED004684FEA430E032202FA05
:103520000EF224EA02044A6802F0030202FA0EF2E2
:10353000224302604A6812F4403FC7D00022019241
:10354000264A546C44F480445464526C02F4804221
:103550000192019A9C08A51C1E4A52F8255003F0BE
:10356000030E4FEA8E0E0F2202FA0EF225EA020532
:103570001B4A90423FF474AF02F5806290421AD029
:1035800002F58062904218D002F58062904216D017
:1035900002F58062904214D002F58062904212D00F
:1035A00002F58062904210D002F5806290423FF4B2
:1035B00055AF082255E7012253E7022251E70322C3
:1035C0004FE704224DE705224BE7062249E702B008
:1035D00070BD704700380140003C01400038024097
:1035E000000002402DE9F04383B0D0F8008001EBE9
:1035F000C10300EB83039A6A5B6A9A4254D8074678
:103600000C469B1A01EBC10200EB8202D2699A427E
:1036100000D31A4602F103094FEA990915E006F1B1
:1036200003094FEA9909BB7904EBC40507EB85054B
:10363000296A0093B3B2E2B2404602F01AFA2B6A4A
:1036400033442B62AB6A3344AB6208EB441303F59B
:1036500010639B699BB24B4512D304EBC40307EB89
:1036600083039A6A5B6A9A420AD24BB19B1A04EBB3
:10367000C40207EB8202D6699E42D0D31E46CEE733
:1036800004EBC40307EB83077A6ABB6A9A420FD83C
:1036900004F00F040122A240D8F8343823EA0203D0
:1036A000C8F83438002000E0012003B0BDE8F08302
:1036B0000020FAE730B583B000287AD004460568C8
:1036C00090F89534C3B1032384F89534B5F1A04F35
:1036D00017D0206801F080FF237C8DF80030231D77
:1036E0000ECB206801F0B6FE70B1022384F8953449
:1036F0000125284603B030BD80F8943404F048FD1D
:10370000E1E70023A371E4E70021206802F0CDFB8C
:10371000024608B9034617E0022384F895340125D0
:10372000E7E703EBC30104EB8101012048750B754A
:10373000CB8500200876C861086203EBC30104EB67
:10374000810148620133DBB220799842E9D816E062
:1037500002EBC20304EB8303002183F8551283F8C4
:10376000542283F85812C3F85C12C3F8601202EBBB
:10377000C20304EB8303C3F864120132D2B2904255
:10378000E6D8237C8DF80030231D0ECB206801F095
:1037900079FF054620B1022384F895340125A8E776
:1037A00000236374012384F89534206802F03CFB05
:1037B0009FE701259DE7036890F89424012A1AD019
:1037C00010B50446012280F89424DA6812F0400F04
:1037D00002D0427B012A09D0206801F0F7FE206860
:1037E00002F014FB002084F8940410BD9A6B42F49C
:1037F00080329A63F0E702207047000070B50446FB
:103800000D460068066C00EB411303F530639A68BF
:10381000A179012911D038498E4256D03DB905EB26
:10382000C50304EB8303D3F86432002B5ED0E9B206
:10383000204604F029FD002070BD12F0080F09D0C9
:103840002E498E42F7D912F4004FF4D04FF40042C3
:103850009A60F0E712F0200F02D020229A60EAE787
:1038600012F0280FE7D125498E4206D912F4004FF5
:1038700003D04FF400429A60DDE705EBC50204EB8C
:103880008202D2F874121B69C3F31203CB1AC2F876
:1038900068327DB905EBC50204EB8202D2F86422DE
:1038A0006AB105EBC50204EB8202D2F8601219443A
:1038B000C2F86012E9B2204604F0E6FCBBE704F26D
:1038C0009C42012102F032FBF4E712F4004F03D0D6
:1038D0004FF400429A60AEE712F0200F01D0202290
:1038E0009A60E9B2204604F0CFFCA4E704F29C42BF
:1038F000002102F01BFB9AE70A31544F0A30544F63
:1039000038B5044603681D6C03EB4113D3F8081B5C
:103910000E4A954207D903F5306311F4004F02D0E7
:103920004FF400429A60204604F0A6FC074B9D42EB
:1039300002D9A379012B01D0002038BD04F29C42AA
:103940000121206802F0F2FAF6E700BF0A30544F76
:1039500090F89434012B0CD010B50446012380F864
:1039600094344174006802F041FA002084F8940411
:1039700010BD0220704738B505468C4611F0800F07
:103980002BD101F00F0E0EEBCE04A40004F514743D
:103990000444211D0EEBCE0E00EB8E0E00208EF89F
:1039A00055020CF00F0C81F800C0C2F30A028A60C5
:1039B0000B714A780AB1A1F81AC0022B1CD095F8F5
:1039C0009434012B1BD0012385F89434286801F02E
:1039D00034FF002085F8940438BD01F00F0000EB9F
:1039E000C001890010312944043100EBC00005EB0F
:1039F000800001244475D4E700234B71DFE70220E7
:103A0000EAE710B504460A4611F0800F20D101F014
:103A10000F0000EBC0039B0003F514732344191D32
:103A200000EBC00004EB8000002380F8553202F068
:103A30000F020A7094F89434012B18D0012384F8F3
:103A40009434206801F046FF002084F8940410BDEF
:103A500001F00F0000EBC0039B0010332344191D3D
:103A600000EBC00004EB800001234375DFE7022078
:103A7000EDE710B5144601F00F0C0CEBCC018900FA
:103A800001F51471014404310CEBCC0E00EB8E0EE9
:103A9000CEF86022CEF864320023CEF868328EF879
:103AA00055328EF854C28279012A04D0006801F0A0
:103AB000F7FF002010BDCEF87042F7E701F00F01CC
:103AC00001EBC10100EB8100D0F86802704710B52E
:103AD000144601F00F0C0CEBCC01890010310144AD
:103AE00004310CEBCC0E00EB8E0ECEF82020CEF87D
:103AF00024300023CEF8283001238EF815308EF8BC
:103B000014C082799A4204D0006801F0C9FF0020F5
:103B100010BDCEF83040F7E738B501F00F05027957
:103B2000AA4238D304460B4611F0800F1FD101EB97
:103B3000C101890001F514710144043103EBC30391
:103B400000EB8303002283F8552201238B700D7054
:103B500094F89434012B20D0012384F89434206805
:103B600002F0E9F885B1002084F8940438BD05EB33
:103B7000C501890010310144043105EBC50300EB98
:103B8000830301225A75E0E704F29C42A179206880
:103B900002F0CCF9E7E70120E8E70220E6E701F0D0
:103BA0000F0302799A4230D310B5044611F0800F0A
:103BB0001ED103EBC301890001F5147101440431E6
:103BC00003EBC30200EB8202002082F855020022C0
:103BD0008A700B7094F89434012B18D0012384F868
:103BE0009434206802F0D4F8002084F8940410BDC6
:103BF00003EBC301890010310144043103EBC3021C
:103C000000EB820201205075E1E70120704702209D
:103C1000EDE708B511F0800F0CD101F00F0101EBB9
:103C2000C101890001F5147101440431006801F0FB
:103C3000C1FE08BD01F00F0101EBC1018900103187
:103C400001440431F2E72DE9F04F83B004460568E2
:103C5000284602F026F910B103B0BDE8F08F064601
:103C6000206802F0EFF80028F6D005F50067BB6881
:103C7000C3F30D23C4F8D434206802F0E3F810F045
:103C8000020F04D02268536903F0020353612068D5
:103C900002F0D8F810F0100F13D02268936923F0C7
:103CA00010039361D5F8208008F00F09C8F343434F
:103CB000022B4BD0062B6FD02268936943F0100380
:103CC0009361206802F0BEF810F4002F76D12068CE
:103CD00002F0B8F810F4802F40F0E080206802F085
:103CE000B1F80028C0F26181206802F0ABF810F44E
:103CF000006F09D0BB6813F0010F40F06E8122689D
:103D0000536903F400635361206802F09BF810F4D8
:103D1000805F40F06681206802F094F810F4005F44
:103D200040F0B381206802F08DF810F0080F40F0E9
:103D3000C481206802F086F810F0800F00F0D7816F
:103D4000AB6923F08003AB610126C0E147F6F07355
:103D500018EA030FB0D04FEA181A4FEAC9030193CB
:103D600009EBC90B04EB8B0BC8F30A12DBF86012EA
:103D7000284601F0BDFFDBF86032CAF30A0A53445B
:103D8000CBF86032DBF86832019A4A4404EB8202D5
:103D90005344C2F868328FE7082204F29C41284657
:103DA00001F0A6FF09EBC90304EB8303D3F86822F3
:103DB000C8F30A184244C3F868227DE7206802F07D
:103DC00045F88046B14635E005EB49130122C3F8BA
:103DD000082B49462046FFF711FD3CE005EB49134F
:103DE0000822C3F8082B49462046FFF789FD35E035
:103DF00009EBC90304EB830393F85732012B41D03D
:103E000005EB49130222C3F8082B1AF0200F04D047
:103E100005EB49132022C3F8082B1AF4005F05D0E4
:103E200005EB49134FF40052C3F8082B09F10109BF
:103E30004FEA5808B8F1000F3FF449AF18F0010FEE
:103E4000F4D05FFA89FB5946206802F00FF88246E9
:103E500010F0010FB8D11AF0080FBFD11AF0100FEF
:103E600004D005EB49131022C3F8082B1AF0020FF7
:103E7000CBD06B6913F0800FBAD07B6843F48063BA
:103E80007B60B5E709EBC90304EB8303002283F8E9
:103E900057225946204604F047FAB1E7206801F05E
:103EA000DDFF8046B14625E05946204604F0F8F98A
:103EB0001AF0080F04D005EB49130822C3F80829AB
:103EC0001AF0100F04D005EB49131022C3F808298B
:103ED0001AF0400F04D005EB49134022C3F808291B
:103EE0001AF0020F40D11AF0800F59D109F10109DF
:103EF0004FEA5808B8F1000F3FF4F0AE18F0010F88
:103F0000F4D05FFA89FB5946206801F0B8FF824679
:103F100010F0010FCCD009F00F02012101FA02F2DA
:103F20007B6B23EA02037B6305EB4913C3F8081993
:103F3000A3798B42B8D109EBC90304EB83031A6A56
:103F4000D9690A441A62B9F1000FADD109EBC9036E
:103F500004EB83035B6A002BA6D104F29C4201218F
:103F6000206801F0E3FF9FE74946284601F03AFB4D
:103F700009EBC90304EB8303DB7D012B05D005EBC3
:103F800049130222C3F80829ADE709EBC90304EB82
:103F900083030022DA755946204604F0CBF9EEE798
:103FA00049462046FFF71EFBA0E77B6823F001038C
:103FB0007B6094F8CC34012B08D0204604F0AEF995
:103FC0002268536903F0004353618DE6002184F8B1
:103FD000CC14204600F03FF9F2E7204604F086F9C1
:103FE0008DE67B6823F001037B601021206801F0DF
:103FF000F9FA1AE005EB46134FF67F31C3F80819BA
:10400000D3F8002922F40012C3F80029C3F8081BD2
:10401000D3F8002B22F40012C3F8002BD3F8002BA6
:1040200042F00062C3F8002B01362379B342E1D895
:10403000FB6943F00113FB61E37BDBB1D7F884300C
:1040400043F00B03C7F884307B6C43F00B037B64B5
:10405000D5F8003823F4FE63C5F8003804F29C421A
:10406000A179206801F062FF2268536903F480534C
:10407000536150E67B6943F4005343F02B037B61AB
:104080003B6943F00B033B61E2E7206801F03EFF30
:10409000206801F0C1FBE071266800F0DDFB0146FD
:1040A000E279304601F020FA204604F00AF922684D
:1040B000536903F40053536134E6204604F0FBF8DF
:1040C0002268536903F00803536132E6013623790D
:1040D000B3420CD906EBC60304EB830393F85732C3
:1040E000012BF3D1F1B22046FFF793FDEEE72068F4
:1040F00001F0A8FE10F4801F25D1206801F0A2FE77
:1041000010F4001F59D0012326E001362379B34271
:104110001BD905EB4613D3F8002906EBC60304EBC5
:1041200083031B7E012BF0D1002AEEDA06EBC603D7
:1041300004EB83030122DA7566F07F01C9B22046E1
:10414000FFF767FDE1E70126E0E72268536903F422
:1041500080135361D1E7013322799A4228D905EBC4
:104160004312D2F8001B03EBC30204EB820292F865
:104170005822012AEFD10029EDDA01F48031D4F878
:10418000D42402F001029142E5D103EBC30204EB17
:104190008202012182F85712AA6942F08002AA61C4
:1041A0006A6912F0800FD6D17B6843F400737B609C
:1041B0002268536903F400135361206801F042FE42
:1041C00010F0804F10D1206801F03CFE10F0040F79
:1041D0003FF442AD23685D6815F0040F0DD12268ED
:1041E00053682B43536037E5204604F0A9F8226852
:1041F000536903F080435361E5E7204604F0A6F8D5
:10420000EDE710B40468606A31B940EA0240A06288
:1042100000205DF8044B70478C46A36A00EB134006
:10422000002308E003F1400104EB8101496800EB41
:1042300011400133DBB20CF1FF318B42F2D340EA83
:1042400002400CF13F0104EB81046060E0E7036889
:104250005962002070477047002800F0E08170B577
:1042600082B00446036813F0010F3BD09F4B9B685C
:1042700003F00C03042B2CD09C4B9B6803F00C0325
:10428000082B21D06368B3F5803F4FD0B3F5A02F42
:1042900052D0964B1A6822F480321A601A6822F4BF
:1042A00080221A606368002B50D0FEF7E1F90546C2
:1042B0008E4B1B6813F4003F14D1FEF7D9F9401B55
:1042C0006428F5D90320B1E1884B5B6813F4800FB3
:1042D000D8D0864B1B6813F4003F03D06368002BD3
:1042E00000F09F81236813F0020F54D07F4B9B682E
:1042F00013F00C0F3ED07D4B9B6803F00C03082B92
:1043000033D0E368002B68D0794B01221A60FEF7A6
:10431000AFF90546754B1B6813F0020F54D1FEF739
:10432000A7F9401B0228F5D903207FE16F4A1368E3
:1043300043F480331360B5E76C4B1A6842F4802273
:104340001A601A6842F480321A60ABE7FEF790F9FF
:104350000546664B1B6813F4003FC3D0FEF788F98F
:10436000401B6428F5D9032060E1604B5B6813F4BF
:10437000800FC6D15D4B1B6813F0020F03D0E368BA
:10438000012B40F05081594A136823F0F80321694A
:1043900043EAC1031360236813F0080F42D0636936
:1043A0006BB3534B0122C3F8802EFEF761F905462B
:1043B0004E4B5B6F13F0020F34D1FEF759F9401BDF
:1043C0000228F5D9032031E1484A136823F0F803A5
:1043D000216943EAC1031360DDE7454B00221A60FF
:1043E000FEF746F90546414B1B6813F0020FD2D089
:1043F000FEF73EF9401B0228F5D9032016E13C4B9D
:104400000022C3F8802EFEF733F90546374B5B6F69
:1044100013F0020F06D0FEF72BF9401B0228F5D946
:10442000032003E1236813F0040F77D02F4B1B6C9C
:1044300013F0805F33D1002301932C4B1A6C42F0B0
:1044400080521A641B6C03F080530193019B012579
:10445000284B1B6813F4807F23D0A368012B34D032
:10446000052B38D0214B1A6F22F001021A671A6F00
:1044700022F004021A67A368002B3DD0FEF7F8F87B
:1044800006461A4B1B6F13F0020F46D1FEF7F0F8E9
:10449000801B41F288339842F3D90320C6E00025FF
:1044A000D6E7144A136843F480731360FEF7E0F80C
:1044B0000646104B1B6813F4807FCED1FEF7D8F868
:1044C000801B0228F5D90320B0E0084A136F43F09F
:1044D00001031367CFE7054B1A6F42F004021A6716
:1044E0001A6F42F001021A67C5E700BF00380240A8
:1044F0000000474200700040FEF7BAF80646524BF3
:104500001B6F13F0020F08D0FEF7B2F8801B41F2C8
:1045100088339842F3D9032088E0EDB9A369002BD2
:1045200000F08380484A926802F00C02082A51D0B9
:10453000022B17D0454B00221A66FEF799F8044665
:10454000414B1B6813F0007F42D0FEF791F8001B2F
:104550000228F5D9032069E03B4A136C23F080530D
:104560001364DBE7394B00221A66FEF781F8054633
:10457000354B1B6813F0007F06D0FEF779F8401B1F
:104580000228F5D9032051E0E369226A1343626AE5
:1045900043EA8213A26A5208013A43EA0243E26AFA
:1045A00043EA0263284A5360284B01221A66FEF749
:1045B0005FF80446244B1B6813F0007F06D1FEF71A
:1045C00057F8001B0228F5D903202FE000202DE02A
:1045D00000202BE0012B2BD01B4B5B6803F48001E8
:1045E000E269914226D103F03F02216A8A4223D137
:1045F000616A47F6C0721A40B2EB811F1ED103F404
:104600004031A26A5208013AB1EB024F18D103F0CF
:104610007063E26AB3EB026F14D1002006E0012060
:104620007047012002E0012000E0002002B070BDD0
:104630000120FBE70120F9E70120F7E70120F5E77A
:104640000120F3E70120F1E7003802400000474273
:1046500008B5264B9B6803F00C03042B41D0082BB4
:1046600041D1224B5A6802F03F025B6813F4800F7D
:1046700012D01E4B5968C1F388111D480023A1FBBD
:104680000001FCF773FA194B5B68C3F30143013374
:104690005B00B0FBF3F027E0144B5868C0F38810C0
:1046A0004FEA401CBCEB000C6EEB0E0E4FEA8E1373
:1046B00043EA9C634FEA8C11B1EB0C0163EB0E03F0
:1046C000DB0043EA5173C90011EB000C43F1000316
:1046D000990200234FEA8C2041EA9C51FCF746FAEC
:1046E000D1E7034800E0034808BD00BF003802409E
:1046F000001BB7000024F400002800F09B8070B578
:104700000D4604464F4B1B6803F007038B4208D24B
:10471000CBB24C4A1370136803F007038B4240F08E
:104720008B80236813F0020F17D013F0040F04D00E
:10473000454A936843F4E0539360236813F0080FED
:1047400004D0414A936843F4604393603E4A9368BF
:1047500023F0F003A1680B439360236813F0010F6B
:1047600032D06368012B21D09A1E012A25D9364AFE
:10477000126812F0020F61D033498A6822F00302F6
:1047800013438B60FDF774FF06462F4B9B6803F0C5
:104790000C036268B3EB820F16D0FDF769FF801B34
:1047A00041F288339842F0D9032042E0264A126849
:1047B00012F4003FE0D101203BE0234A126812F0DE
:1047C000007FD9D1012034E01E4B1B6803F00703A2
:1047D000AB4207D9EAB21B4B1A701B6803F0070300
:1047E000AB422DD1236813F0040F06D0164A93680C
:1047F00023F4E053E1680B439360236813F0080F40
:1048000007D0114A936823F46043216943EAC10346
:104810009360FFF71DFF0C4B9B68C3F303130B4A18
:10482000D35CD8400A4B18600A4B1868FDF70AFDA4
:10483000002070BD012070470120FAE70120F8E751
:104840000120F6E7003C024000380240E0BA0008D0
:10485000040000200C000020014B1868704700BFC6
:104860000400002008B5FFF7F7FF044B9B68C3F373
:104870008223034AD35CD84008BD00BF0038024001
:10488000D8BA000808B5FFF7E7FF044B9B68C3F3ED
:104890004233034AD35CD84008BD00BF0038024011
:1048A000D8BA00080F2303600B4B9A6802F003028A
:1048B00042609A6802F0F00282609A6802F4E05264
:1048C000C2609B68DB0803F4E0530361034B1B6881
:1048D00003F007030B60704700380240003C0240C1
:1048E0007047000090F83D30DBB2012B37D1022336
:1048F00080F83D300268D36843F00103D360036859
:10490000194A934220D0B3F1804F1DD0A2F57C42CA
:10491000934219D002F58062934215D002F580626D
:10492000934211D002F5784293420DD002F57052B5
:10493000934209D0A2F59432934205D01A6842F00E
:1049400001021A60002070479A6802F00702062AE6
:1049500007D01A6842F001021A6000207047012057
:1049600070470020704700BF00000140704770474B
:104970007047704770B504460368DE681D6915F01E
:10498000020F10D016F0020F0DD06FF002021A6164
:104990000123037703689B6913F0030F5ED0FFF7D1
:1049A000E6FF0023237715F0040F12D016F0040F52
:1049B0000FD023686FF004021A6102232377236863
:1049C0009B6913F4407F4FD02046FFF7D0FF0023B0
:1049D000237715F0080F12D016F0080F0FD02368B8
:1049E0006FF008021A61042323772368DB6913F050
:1049F000030F40D02046FFF7BAFF0023237715F0BE
:104A0000100F12D016F0100F0FD023686FF01002A5
:104A10001A61082323772368DB6913F4407F31D0C0
:104A20002046FFF7A4FF0023237715F0010F02D0E3
:104A300016F0010F2DD115F0800F02D016F0800F67
:104A40002FD115F0400F02D016F0400F31D115F0E4
:104A5000200F02D016F0200F33D170BDFFF786FF74
:104A60002046FFF785FF9CE72046FFF77FFF2046A3
:104A7000FFF77EFFABE72046FFF778FF2046FFF702
:104A800077FFBAE72046FFF771FF2046FFF770FF78
:104A9000C9E723686FF001021A612046FDF738FB71
:104AA000C9E723686FF080021A61204600F0ABF876
:104AB000C7E723686FF040021A612046FFF759FFED
:104AC000C5E723686FF020021A61204600F09AF8CB
:104AD000C3E700000368344A904212D0B0F1804F1F
:104AE0000FD0A2F57C4290420BD002F5806290423A
:104AF00007D002F58062904203D002F578429042DE
:104B000003D123F070034A681343274A90422AD006
:104B1000B0F1804F27D0A2F57C42904223D002F51D
:104B2000806290421FD002F5806290421BD002F555
:104B30007842904217D002F57052904213D002F59D
:104B4000806290420FD002F5806290420BD0A2F5B5
:104B50009832904207D002F58062904203D002F56D
:104B60008062904203D123F44073CA68134323F058
:104B700080034A69134303608B68C3620B688362D6
:104B8000094B984203D003F58063984201D10B6929
:104B9000036301234361036913F0010F03D0036929
:104BA00023F00103036170470000014040B310B5DA
:104BB000044690F83D30F3B1022384F83D3021469D
:104BC00051F8040BFFF786FF012384F8463084F880
:104BD0003E3084F83F3084F8403084F8413084F827
:104BE000423084F8433084F8443084F8453084F807
:104BF0003D30002010BD80F83C30FFF771FEDBE750
:104C00000120704770477047026802F10C0353E8B7
:104C1000003F23F0C0030C3242E800310029F3D1F9
:104C2000202380F841307047026802F10C0353E8FA
:104C3000003F23F490730C3242E800310029F3D195
:104C4000026802F1140353E8003F23F00103143219
:104C500042E800310029F3D1036B012B05D020235A
:104C600080F84230002303637047026802F10C03AE
:104C700053E8003F23F010030C3242E800310029D2
:104C8000F3D1ECE790F84130DBB2212B01D00220C8
:104C900070478368B3F5805F17D0036A5A1C0262BD
:104CA0001A7803685A60C38C9BB2013B9BB2C384E1
:104CB0004BB90268D36823F08003D3600268D368DD
:104CC00043F04003D360002070470369002BE4D118
:104CD000036A1B880268C3F308035360036A023344
:104CE0000362E0E710B504460268136923F44053F9
:104CF000C1680B431361836802691A4343691A430D
:104D0000C3691A430168CB6823F4164323F00C03EC
:104D10001343CB600268536923F4407381690B43EA
:104D200053610368314A934206D002F58062934290
:104D300002D0FFF797FD01E0FFF7A4FDE369B3F5AB
:104D4000004F29D00021031849411B1841F10001EF
:104D5000C90041EA5371DB00181863684FEA830207
:104D60004FEA937341F10001FBF700FF204AA2FBD9
:104D700000314909642303FB11031B013233A2FBF9
:104D800003235B0903F0F00202EB011203F00F03AF
:104D9000216813448B6010BD0023021843EB03010C
:104DA000121841F10001C90041EA5271D2001018F5
:104DB00041F10001626892185B41FBF7D7FE0C4A93
:104DC000A2FB00314909642303FB1103DB003233EA
:104DD000A2FB03235B095A0002F4F87202EB0112F2
:104DE00003F00703216813448B60D4E700100140EF
:104DF0001F85EB5160B310B5044690F8413013B3F2
:104E0000242384F841302268D36823F40053D3600C
:104E10002046FFF767FF2268136923F4904313616C
:104E20002268536923F02A0353612268D36843F44C
:104E30000053D36000206064202384F8413084F85C
:104E40004230606310BD80F84030FDF70BFBD7E7C0
:104E500001207047704708B50168CA6822F0400217
:104E6000CA60202280F84120FFF7F4FF002008BD2F
:104E700070477047704710B5846B23685A6994F87F
:104E80004130DBB2212B10D023685A6902F0400276
:104E900094F84230DBB2222B11D0636C43F0100344
:104EA00063642046FFF7E6FF10BD02F08002002A8F
:104EB000EAD00023E3842046FFF7A6FEE4E7002AB9
:104EC000EBD00023E3852046FFF7AEFEE5E708B50B
:104ED000806B0023C385C384FFF7CCFF08BD90F827
:104EE0004230DBB2222B69D18368B3F5805F4FD0AB
:104EF000826AB3F5805F04D0002B56D10369002B82
:104F000053D103685B681370836A01338362C38D76
:104F10009BB2013B9BB2C385002B51D100B583B03E
:104F20000268D36823F02003D3600268D36823F4B7
:104F30008073D3600268536923F001035361202317
:104F400080F8423000234363036B012B33D10023ED
:104F50000363026802F10C0353E8003F23F01003DF
:104F60000C3242E800310029F3D103681A6812F0CC
:104F7000100F06D0002201921A6801925B6801931B
:104F8000019B818D04F07EFE002003B05DF804FBE0
:104F90000269002AACD1826A03685B68C3F3080324
:104FA0001380836A02338362B1E703685B6803F0AE
:104FB0007F031370A8E7FFF75BFFE5E70220704768
:104FC0000020704710B582B0044602681368D068AC
:104FD000516913F00F0F09D113F0200F0CD010F00E
:104FE000200F09D02046FFF77AFF16E011F00101EB
:104FF00015D110F4907F12D1216B012979D013F0D3
:10500000800F03D010F0800F40F0148113F0400F98
:1050100003D010F0400F40F0118102B010BD13F02A
:10502000010F06D010F4807F03D0626C42F00102C1
:10503000626413F0040F04D019B1626C42F00202F2
:10504000626413F0020F04D019B1626C42F00402E2
:10505000626413F0080F07D010F0200F00D119B1CF
:10506000626C42F008026264626C002AD5D013F0D0
:10507000200F02D010F0200F29D123685B6903F0C4
:105080004003626C12F0080F00D163B32046FFF7B3
:10509000CBFD23685B6913F0400F20D0226802F13A
:1050A000140353E8003F23F04003143242E8003178
:1050B0000029F3D1E36B73B1624A1A65E06BFEF726
:1050C0009AF80028A9D0E06B036D9847A5E7204621
:1050D000FFF705FFD1E72046FFF7CCFE9DE720460E
:1050E000FFF7C8FE99E72046FFF7C4FE002363647C
:1050F00093E713F0100F82D010F0100F3FF47FAF42
:10510000002301931368019353680193019B536932
:1051100013F0400F52D0E26B13685B689BB2002B18
:105120003FF47BAFA18D99427FF677AFE385D369DA
:10513000B3F5807F37D0226802F10C0353E8003FBB
:1051400023F480730C3242E800310029F3D1226845
:1051500002F1140353E8003F23F00103143242E844
:1051600000310029F3D1226802F1140353E8003F13
:1051700023F04003143242E800310029F3D1202308
:1051800084F8423000232363226802F10C0353E8C1
:10519000003F23F010030C3242E800310029F3D124
:1051A000E06BFDF7DEFF02236363A18DE38D9BB20D
:1051B000C91A89B2204604F065FD2EE7A18DE38D62
:1051C0009BB2C91A89B2E38D9BB2002B3FF425AF85
:1051D00000293FF422AF226802F10C0353E8003F9C
:1051E00023F490730C3242E800300028F3D1226897
:1051F00002F1140353E8003F23F00103143242E8A4
:1052000000300028F3D1202384F8423000232363A8
:10521000226802F10C0353E8003F23F010030C3224
:1052200042E800300028F3D102236363204604F0F3
:1052300029FDF2E62046FFF725FDEEE62046FFF7C2
:105240000AFEEAE6CF4E000808B5806B01234363EF
:10525000036B012B02D0FFF70CFE08BD818D4908BE
:1052600004F010FDF9E708B50346806B1B681B6866
:1052700013F4807F2BD10023C385026802F10C0355
:1052800053E8003F23F480730C3242E800310029D8
:10529000F3D1026802F1140353E8003F23F0010345
:1052A000143242E800310029F3D1026802F11403FC
:1052B00053E8003F23F04003143242E80031002954
:1052C000F3D1202380F84230036B012B07D0002359
:1052D0004363036B012B0FD0FFF7CAFD08BD0268C3
:1052E00002F10C0353E8003F23F010030C3242E8B4
:1052F00000310029F3D1EAE7818D04F0C3FCEDE72A
:1053000030B583B00446134681628285002545642A
:10531000222280F84220C26B1F48D063E26B1F48F4
:105320001064E26B1E48D064E26B156520680A4683
:10533000011DE06BFDF7E0FE019523681A680192FC
:105340005B680193019B23695BB1226802F10C0346
:1053500053E8003F43F480730C3242E800310029E7
:10536000F3D1226802F1140353E8003F43F0010334
:10537000143242E800310029F3D1226802F114030B
:1053800053E8003F43F04003143242E80031002963
:10539000F3D1002003B030BD675200084952000825
:1053A000774E000890F84230DBB2202B29D110B59F
:1053B00082B0044639B312B9012002B010BD0123F6
:1053C000036300234363FFF79BFF0028F5D1236BA2
:1053D000012B01D00120F0E70023019323681A6814
:1053E00001925B680193019B226802F10C0353E870
:1053F000003F43F010030C3242E800310029F3D1A2
:10540000DBE7022070470120D7E782B00023019339
:10541000019B01330193019BB3F1706F15D80369B0
:10542000002BF5DA00230193036943F001030361C4
:10543000019B01330193019BB3F1706F08D803699D
:1054400013F0010FF4D1002000E0032002B07047F8
:105450000320FBE784B010B5044603A880E80E00E3
:105460009DF81130012B21D1A36B23F48033A3636A
:10547000E36823F4840323F04003E360E36823F448
:105480004013E3609DF81830012B0AD02046FFF747
:10549000BCFF9DF80E30012B1CD0BDE8104004B0BD
:1054A0007047E36843F48013E360EFE7E36843F099
:1054B0004003E3602046FFF7A8FF9DF8153023B9AD
:1054C000A36B43F48033A363E3E7A36B23F480333C
:1054D000A363DEE7A36843F00603A360A36843F079
:1054E0002003A360D9E70000022A0AD00922C3687A
:1054F00023F47053C360C36843EA8223C36000206F
:105500007047234B0B44234A93422FD9224B0B4421
:10551000224A93422CD9A1F57403A3F51053204AD3
:10552000934227D9A1F18373A3F5E7431D4A934220
:1055300022D31D4B0B441D4A93421FD91C4B0B44D5
:105540001C4A93421CD31C4B0B441C4A934219D354
:10555000A1F1B773A3F55853194A934214D3194BC9
:105560000B44194A934211D20722C0E70F22BEE72B
:105570000E22BCE70D22BAE70C22B8E70B22B6E7F1
:105580000A22B4E70922B2E70822B0E70622AEE712
:10559000405327FFFF340C00401E1BFF3F420F000B
:1055A0007F4F120020D6130060B6E5FE5FE31600C1
:1055B00000D3CEFE40771B00C05BB3FEC09121003C
:1055C00020753800E05459FEE09C4100836843F0A8
:1055D0000103836000207047836823F00103836028
:1055E0000020704782B000230193019B0133019397
:1055F000019BB3F1706F15D80369002BF5DA002316
:105600000193890141F020010161019B0133019364
:10561000019BB3F1706F08D8036913F0200FF4D128
:10562000002000E0032002B070470320FBE782B0B7
:1056300000230193019B01330193019BB3F1706F30
:1056400013D80369002BF5DA0023019310230361BB
:10565000019B01330193019BB3F1706F08D803697B
:1056600013F0100FF4D1002000E0032002B07047C7
:105670000320FBE7D0F800381943C0F800180020D9
:105680007047000084B0F8B5044607A880E80E0013
:10569000002306E003F1400204EB82020021516086
:1056A00001330E2BF6D99DF8266006BBD4F80438DA
:1056B00043F00203C4F80438A36B43F40013A3635C
:1056C000A36B23F40023A363A36B23F48023A363BE
:1056D0000023C4F8003E9DF82130012B15D19DF820
:1056E0001F306BB900212046FFF7C4FF11E0A36B08
:1056F00023F40013A363A36B43F40023A363E7E73E
:1057000001212046FFF7B6FF03E003212046FFF703
:10571000B1FF10212046FFF765FF054600B10125C6
:105720002046FFF784FF00B1012504F5006C00233B
:10573000CCF81030CCF81430CCF81C300AE0CBB9DF
:105740004FF00060C2F8000900220A614FF67F3274
:105750008A6001339DF81C10994210D904EB431262
:1057600002F51061D2F800090028E8DB0020C2F839
:105770000009E9E74FF09040C2F80009E4E7002390
:105780000AE0BBB14FF09047C2F8007B00220261F3
:105790004FF67F3282600133994210D904EB4312F5
:1057A00002F53060D2F8007B002FEADB0027C2F858
:1057B000007BEBE74FF00067C2F8007BE6E7DCF820
:1057C000103023F48073CCF810300023A3616FF005
:1057D000804363619DF81E301BB9A36943F0100339
:1057E000A361A2690B4B1343A3619DF822301BB147
:1057F000A36943F00803A361012E04D02846BDE845
:10580000F84004B07047A36943F0804343F00403B9
:10581000A361F3E700383C80D0F8083813F00603A2
:1058200007D0022B07D0062B01D00F207047022093
:105830007047002070470220704710B591F800C0F3
:105840004B78012B23D000F5006ED0F81C380CF0FB
:105850000F040122A24043EA0243C0F81C3800EBC7
:105860004C10D0F8003B13F4004F0ED1D0F8003BA1
:105870008A68C2F30A02097942EA8142134343F07B
:10588000805343F40043C0F8003B002010BDD0F823
:105890001C280CF00F0E03FA0EF39BB21343C0F852
:1058A0001C3800EB4C10D0F8003913F4004FECD149
:1058B000D0F800398A68C2F30A02097942EA8142C3
:1058C00042EA8C52134343F0805343F40043C0F840
:1058D0000039DAE730B40B784A78012A26D000EB99
:1058E0004313D3F8002B002A52DBD0F83C480A7847
:1058F00002F00F024FF0010C0CFA02F224EA02420D
:10590000C0F83C28D0F81C28097801F00F010CFAE7
:1059100001FC22EA0C42C0F81C28D3F8001B234AE1
:105920000A40C3F8002B002030BC704700EB431343
:10593000D3F80029002A1EDBD0F83C580A7802F080
:105940000F02012404FA02F292B225EA0202C0F820
:105950003C28D0F81C28097801F00F018C40A4B233
:1059600022EA0402C0F81C28D3F80019104A0A40A1
:10597000C3F80029D7E7D3F8002942F00062C3F842
:105980000029D3F8002942F08042C3F80029D3E768
:10599000D3F8002B42F00062C3F8002BD3F8002BA1
:1059A00042F08042C3F8002B9FE700BF0078F3EF7E
:1059B000007833EC10B483B002460023019348789A
:1059C00001280BD00B7802EB4313D3F8000B00280F
:1059D0002DDB002003B05DF8044B70470B7802EB21
:1059E0004313D3F80049002C01DB0020F2E7D3F881
:1059F000004944F00064C3F800490B7802EB4313FC
:105A0000D3F8004944F08044C3F80049019B0133B6
:105A10000193019C42F210739C42DBD80B7802EB9D
:105A20004313D3F80039002BF0DB0020D2E7D3F882
:105A3000000B40F00060C3F8000B0B7802EB43133F
:105A4000D3F8000B40F08040C3F8000B019B0133FA
:105A50000193019842F21073984208D80B7802EB38
:105A60004313D3F8003B002BF0DB0020B2E701200A
:105A7000B0E710B59DF8084084B903334FEA930EA0
:105A80004FF0000C08E000EB023303F5805351F8AF
:105A9000044B1C600CF1010CF445F4D3002010BD44
:105AA000F0B583B00C784B78012B2FD000EB441C61
:105AB0000CF530631D69ED0CED041D611D6925F0C9
:105AC000FF5525F4C0151D61002C40F0D2800C69F3
:105AD0000CB18C680C618C680C621D69C4F31204F3
